{
  "contractName": "TokenStaking",
  "abi": [
    {
      "inputs": [
        {
          "internalType": "contract MotherToken",
          "name": "_MTHRToken",
          "type": "address"
        }
      ],
      "stateMutability": "payable",
      "type": "constructor",
      "payable": true
    },
    {
      "inputs": [],
      "name": "MTHRToken",
      "outputs": [
        {
          "internalType": "contract MotherToken",
          "name": "",
          "type": "address"
        }
      ],
      "stateMutability": "view",
      "type": "function",
      "constant": true
    },
    {
      "inputs": [],
      "name": "customAPY",
      "outputs": [
        {
          "internalType": "uint256",
          "name": "",
          "type": "uint256"
        }
      ],
      "stateMutability": "view",
      "type": "function",
      "constant": true
    },
    {
      "inputs": [
        {
          "internalType": "address",
          "name": "",
          "type": "address"
        }
      ],
      "name": "customHasStaked",
      "outputs": [
        {
          "internalType": "bool",
          "name": "",
          "type": "bool"
        }
      ],
      "stateMutability": "view",
      "type": "function",
      "constant": true
    },
    {
      "inputs": [
        {
          "internalType": "address",
          "name": "",
          "type": "address"
        }
      ],
      "name": "customIsStakingAtm",
      "outputs": [
        {
          "internalType": "bool",
          "name": "",
          "type": "bool"
        }
      ],
      "stateMutability": "view",
      "type": "function",
      "constant": true
    },
    {
      "inputs": [
        {
          "internalType": "uint256",
          "name": "",
          "type": "uint256"
        }
      ],
      "name": "customStakers",
      "outputs": [
        {
          "internalType": "address",
          "name": "",
          "type": "address"
        }
      ],
      "stateMutability": "view",
      "type": "function",
      "constant": true
    },
    {
      "inputs": [
        {
          "internalType": "address",
          "name": "",
          "type": "address"
        }
      ],
      "name": "customStakingBalance",
      "outputs": [
        {
          "internalType": "uint256",
          "name": "",
          "type": "uint256"
        }
      ],
      "stateMutability": "view",
      "type": "function",
      "constant": true
    },
    {
      "inputs": [],
      "name": "customTotalStaked",
      "outputs": [
        {
          "internalType": "uint256",
          "name": "",
          "type": "uint256"
        }
      ],
      "stateMutability": "view",
      "type": "function",
      "constant": true
    },
    {
      "inputs": [],
      "name": "defaultAPY",
      "outputs": [
        {
          "internalType": "uint256",
          "name": "",
          "type": "uint256"
        }
      ],
      "stateMutability": "view",
      "type": "function",
      "constant": true
    },
    {
      "inputs": [
        {
          "internalType": "address",
          "name": "",
          "type": "address"
        }
      ],
      "name": "hasStaked",
      "outputs": [
        {
          "internalType": "bool",
          "name": "",
          "type": "bool"
        }
      ],
      "stateMutability": "view",
      "type": "function",
      "constant": true
    },
    {
      "inputs": [
        {
          "internalType": "address",
          "name": "",
          "type": "address"
        }
      ],
      "name": "isStakingAtm",
      "outputs": [
        {
          "internalType": "bool",
          "name": "",
          "type": "bool"
        }
      ],
      "stateMutability": "view",
      "type": "function",
      "constant": true
    },
    {
      "inputs": [],
      "name": "name",
      "outputs": [
        {
          "internalType": "string",
          "name": "",
          "type": "string"
        }
      ],
      "stateMutability": "view",
      "type": "function",
      "constant": true
    },
    {
      "inputs": [],
      "name": "owner",
      "outputs": [
        {
          "internalType": "address",
          "name": "",
          "type": "address"
        }
      ],
      "stateMutability": "view",
      "type": "function",
      "constant": true
    },
    {
      "inputs": [
        {
          "internalType": "uint256",
          "name": "",
          "type": "uint256"
        }
      ],
      "name": "stakers",
      "outputs": [
        {
          "internalType": "address",
          "name": "",
          "type": "address"
        }
      ],
      "stateMutability": "view",
      "type": "function",
      "constant": true
    },
    {
      "inputs": [
        {
          "internalType": "address",
          "name": "",
          "type": "address"
        }
      ],
      "name": "stakingBalance",
      "outputs": [
        {
          "internalType": "uint256",
          "name": "",
          "type": "uint256"
        }
      ],
      "stateMutability": "view",
      "type": "function",
      "constant": true
    },
    {
      "inputs": [],
      "name": "totalStaked",
      "outputs": [
        {
          "internalType": "uint256",
          "name": "",
          "type": "uint256"
        }
      ],
      "stateMutability": "view",
      "type": "function",
      "constant": true
    },
    {
      "inputs": [
        {
          "internalType": "uint256",
          "name": "_amount",
          "type": "uint256"
        }
      ],
      "name": "stakeTokens",
      "outputs": [],
      "stateMutability": "nonpayable",
      "type": "function"
    },
    {
      "inputs": [],
      "name": "unstakeTokens",
      "outputs": [],
      "stateMutability": "nonpayable",
      "type": "function"
    },
    {
      "inputs": [
        {
          "internalType": "uint256",
          "name": "_amount",
          "type": "uint256"
        }
      ],
      "name": "customStaking",
      "outputs": [],
      "stateMutability": "nonpayable",
      "type": "function"
    },
    {
      "inputs": [],
      "name": "customUnstake",
      "outputs": [],
      "stateMutability": "nonpayable",
      "type": "function"
    },
    {
      "inputs": [],
      "name": "redistributeRewards",
      "outputs": [],
      "stateMutability": "nonpayable",
      "type": "function"
    },
    {
      "inputs": [],
      "name": "customRewards",
      "outputs": [],
      "stateMutability": "nonpayable",
      "type": "function"
    },
    {
      "inputs": [
        {
          "internalType": "uint256",
          "name": "_value",
          "type": "uint256"
        }
      ],
      "name": "changeAPY",
      "outputs": [],
      "stateMutability": "nonpayable",
      "type": "function"
    },
    {
      "inputs": [],
      "name": "claimMTHR",
      "outputs": [],
      "stateMutability": "nonpayable",
      "type": "function"
    }
  ],
  "bytecode": "0x60806040526040518060400160405280601a81526020017f5969656c64204661726d696e67202f20546f6b656e206441707000000000000081525060009080519060200190620000519291906200010a565b50606460035560896004556040516200210d3803806200210d833981810160405281019062000081919062000238565b80600160006101000a81548173ffffffffffffffffffffffffffffffffffffffff021916908373ffffffffffffffffffffffffffffffffffffffff16021790555033600260006101000a81548173ffffffffffffffffffffffffffffffffffffffff021916908373ffffffffffffffffffffffffffffffffffffffff16021790555050620002cf565b828054620001189062000299565b90600052602060002090601f0160209004810192826200013c576000855562000188565b82601f106200015757805160ff191683800117855562000188565b8280016001018555821562000188579182015b82811115620001875782518255916020019190600101906200016a565b5b5090506200019791906200019b565b5090565b5b80821115620001b65760008160009055506001016200019c565b5090565b600080fd5b600073ffffffffffffffffffffffffffffffffffffffff82169050919050565b6000620001ec82620001bf565b9050919050565b60006200020082620001df565b9050919050565b6200021281620001f3565b81146200021e57600080fd5b50565b600081519050620002328162000207565b92915050565b600060208284031215620002515762000250620001ba565b5b6000620002618482850162000221565b91505092915050565b7f4e487b7100000000000000000000000000000000000000000000000000000000600052602260045260246000fd5b60006002820490506001821680620002b257607f821691505b60208210811415620002c957620002c86200026a565b5b50919050565b611e2e80620002df6000396000f3fe608060405234801561001057600080fd5b506004361061014d5760003560e01c80638da5cb5b116100c3578063c93c8f341161007c578063c93c8f3414610344578063cc8da8b814610374578063cde5f4731461037e578063dfb0e706146103ae578063fb5cd515146103de578063fd5e6dd1146103fa5761014d565b80638da5cb5b146102a657806399ce10d1146102c45780639bd62932146102ce578063a5ce413b146102fe578063b163917614610308578063b4e892af146103265761014d565b806366f1c9201161011557806366f1c9201461020c5780636d6010c1146102165780637547c7a31461024657806376159b68146102625780637cc302e51461027e578063817b1cd2146102885761014d565b806306fdde03146101525780630c500a4e1461017057806345bc78ab1461018e5780635b5c58c3146101be57806363fa1466146101ee575b600080fd5b61015a61042a565b6040516101679190611626565b60405180910390f35b6101786104b8565b6040516101859190611661565b60405180910390f35b6101a860048036038101906101a391906116df565b6104be565b6040516101b59190611661565b60405180910390f35b6101d860048036038101906101d391906116df565b6104d6565b6040516101e59190611727565b60405180910390f35b6101f66104f6565b6040516102039190611661565b60405180910390f35b6102146104fc565b005b610230600480360381019061022b91906116df565b610704565b60405161023d9190611727565b60405180910390f35b610260600480360381019061025b919061176e565b610724565b005b61027c6004803603810190610277919061176e565b610a14565b005b610286610af1565b005b610290610ccd565b60405161029d9190611661565b60405180910390f35b6102ae610cd3565b6040516102bb91906117aa565b60405180910390f35b6102cc610cf9565b005b6102e860048036038101906102e391906116df565b610db7565b6040516102f59190611727565b60405180910390f35b610306610dd7565b005b610310610fb3565b60405161031d9190611824565b60405180910390f35b61032e610fd9565b60405161033b9190611661565b60405180910390f35b61035e600480360381019061035991906116df565b610fdf565b60405161036b9190611727565b60405180910390f35b61037c610fff565b005b6103986004803603810190610393919061176e565b611207565b6040516103a591906117aa565b60405180910390f35b6103c860048036038101906103c391906116df565b611246565b6040516103d59190611661565b60405180910390f35b6103f860048036038101906103f3919061176e565b61125e565b005b610414600480360381019061040f919061176e565b61154e565b60405161042191906117aa565b60405180910390f35b600080546104379061186e565b80601f01602080910402602001604051908101604052809291908181526020018280546104639061186e565b80156104b05780601f10610485576101008083540402835291602001916104b0565b820191906000526020600020905b81548152906001019060200180831161049357829003601f168201915b505050505081565b60045481565b60076020528060005260406000206000915090505481565b600c6020528060005260406000206000915054906101000a900460ff1681565b60065481565b600260009054906101000a900473ffffffffffffffffffffffffffffffffffffffff1673ffffffffffffffffffffffffffffffffffffffff163373ffffffffffffffffffffffffffffffffffffffff161461058c576040517f08c379a000000000000000000000000000000000000000000000000000000000815260040161058390611912565b60405180910390fd5b60005b600e80549050811015610701576000600e82815481106105b2576105b1611932565b5b9060005260206000200160009054906101000a900473ffffffffffffffffffffffffffffffffffffffff1690506000600454600860008473ffffffffffffffffffffffffffffffffffffffff1673ffffffffffffffffffffffffffffffffffffffff1681526020019081526020016000205461062e9190611990565b9050620186a08161063f9190611a19565b905060008111156106ec57600160009054906101000a900473ffffffffffffffffffffffffffffffffffffffff1673ffffffffffffffffffffffffffffffffffffffff1663a9059cbb83836040518363ffffffff1660e01b81526004016106a7929190611a4a565b6020604051808303816000875af11580156106c6573d6000803e3d6000fd5b505050506040513d601f19601f820116820180604052508101906106ea9190611a9f565b505b505080806106f990611acc565b91505061058f565b50565b600a6020528060005260406000206000915054906101000a900460ff1681565b60008111610767576040517f08c379a000000000000000000000000000000000000000000000000000000000815260040161075e90611b61565b60405180910390fd5b600160009054906101000a900473ffffffffffffffffffffffffffffffffffffffff1673ffffffffffffffffffffffffffffffffffffffff166323b872dd3330846040518463ffffffff1660e01b81526004016107c693929190611b81565b6020604051808303816000875af11580156107e5573d6000803e3d6000fd5b505050506040513d601f19601f820116820180604052508101906108099190611a9f565b50806005546108189190611bb8565b60058190555080600760003373ffffffffffffffffffffffffffffffffffffffff1673ffffffffffffffffffffffffffffffffffffffff168152602001908152602001600020546108699190611bb8565b600760003373ffffffffffffffffffffffffffffffffffffffff1673ffffffffffffffffffffffffffffffffffffffff16815260200190815260200160002081905550600960003373ffffffffffffffffffffffffffffffffffffffff1673ffffffffffffffffffffffffffffffffffffffff16815260200190815260200160002060009054906101000a900460ff1661096157600d339080600181540180825580915050600190039060005260206000200160009091909190916101000a81548173ffffffffffffffffffffffffffffffffffffffff021916908373ffffffffffffffffffffffffffffffffffffffff1602179055505b6001600960003373ffffffffffffffffffffffffffffffffffffffff1673ffffffffffffffffffffffffffffffffffffffff16815260200190815260200160002060006101000a81548160ff0219169083151502179055506001600b60003373ffffffffffffffffffffffffffffffffffffffff1673ffffffffffffffffffffffffffffffffffffffff16815260200190815260200160002060006101000a81548160ff02191690831515021790555050565b600260009054906101000a900473ffffffffffffffffffffffffffffffffffffffff1673ffffffffffffffffffffffffffffffffffffffff163373ffffffffffffffffffffffffffffffffffffffff1614610aa4576040517f08c379a0000000000000000000000000000000000000000000000000000000008152600401610a9b90611c80565b60405180910390fd5b60008111610ae7576040517f08c379a0000000000000000000000000000000000000000000000000000000008152600401610ade90611d38565b60405180910390fd5b8060048190555050565b6000600860003373ffffffffffffffffffffffffffffffffffffffff1673ffffffffffffffffffffffffffffffffffffffff16815260200190815260200160002054905060008111610b78576040517f08c379a0000000000000000000000000000000000000000000000000000000008152600401610b6f90611da4565b60405180910390fd5b600160009054906101000a900473ffffffffffffffffffffffffffffffffffffffff1673ffffffffffffffffffffffffffffffffffffffff1663a9059cbb33836040518363ffffffff1660e01b8152600401610bd5929190611a4a565b6020604051808303816000875af1158015610bf4573d6000803e3d6000fd5b505050506040513d601f19601f82011682018060405250810190610c189190611a9f565b5080600654610c279190611dc4565b6006819055506000600860003373ffffffffffffffffffffffffffffffffffffffff1673ffffffffffffffffffffffffffffffffffffffff168152602001908152602001600020819055506000600c60003373ffffffffffffffffffffffffffffffffffffffff1673ffffffffffffffffffffffffffffffffffffffff16815260200190815260200160002060006101000a81548160ff02191690831515021790555050565b60055481565b600260009054906101000a900473ffffffffffffffffffffffffffffffffffffffff1681565b60003390506000683635c9adc5dea0000090506000819050600160009054906101000a900473ffffffffffffffffffffffffffffffffffffffff1673ffffffffffffffffffffffffffffffffffffffff1663a9059cbb84836040518363ffffffff1660e01b8152600401610d6e929190611a4a565b6020604051808303816000875af1158015610d8d573d6000803e3d6000fd5b505050506040513d601f19601f82011682018060405250810190610db19190611a9f565b50505050565b600b6020528060005260406000206000915054906101000a900460ff1681565b6000600760003373ffffffffffffffffffffffffffffffffffffffff1673ffffffffffffffffffffffffffffffffffffffff16815260200190815260200160002054905060008111610e5e576040517f08c379a0000000000000000000000000000000000000000000000000000000008152600401610e5590611da4565b60405180910390fd5b600160009054906101000a900473ffffffffffffffffffffffffffffffffffffffff1673ffffffffffffffffffffffffffffffffffffffff1663a9059cbb33836040518363ffffffff1660e01b8152600401610ebb929190611a4a565b6020604051808303816000875af1158015610eda573d6000803e3d6000fd5b505050506040513d601f19601f82011682018060405250810190610efe9190611a9f565b5080600554610f0d9190611dc4565b6005819055506000600760003373ffffffffffffffffffffffffffffffffffffffff1673ffffffffffffffffffffffffffffffffffffffff168152602001908152602001600020819055506000600b60003373ffffffffffffffffffffffffffffffffffffffff1673ffffffffffffffffffffffffffffffffffffffff16815260200190815260200160002060006101000a81548160ff02191690831515021790555050565b600160009054906101000a900473ffffffffffffffffffffffffffffffffffffffff1681565b60035481565b60096020528060005260406000206000915054906101000a900460ff1681565b600260009054906101000a900473ffffffffffffffffffffffffffffffffffffffff1673ffffffffffffffffffffffffffffffffffffffff163373ffffffffffffffffffffffffffffffffffffffff161461108f576040517f08c379a000000000000000000000000000000000000000000000000000000000815260040161108690611912565b60405180910390fd5b60005b600d80549050811015611204576000600d82815481106110b5576110b4611932565b5b9060005260206000200160009054906101000a900473ffffffffffffffffffffffffffffffffffffffff1690506000600354600760008473ffffffffffffffffffffffffffffffffffffffff1673ffffffffffffffffffffffffffffffffffffffff168152602001908152602001600020546111319190611990565b9050620186a0816111429190611a19565b905060008111156111ef57600160009054906101000a900473ffffffffffffffffffffffffffffffffffffffff1673ffffffffffffffffffffffffffffffffffffffff1663a9059cbb83836040518363ffffffff1660e01b81526004016111aa929190611a4a565b6020604051808303816000875af11580156111c9573d6000803e3d6000fd5b505050506040513d601f19601f820116820180604052508101906111ed9190611a9f565b505b505080806111fc90611acc565b915050611092565b50565b600e818154811061121757600080fd5b906000526020600020016000915054906101000a900473ffffffffffffffffffffffffffffffffffffffff1681565b60086020528060005260406000206000915090505481565b600081116112a1576040517f08c379a000000000000000000000000000000000000000000000000000000000815260040161129890611b61565b60405180910390fd5b600160009054906101000a900473ffffffffffffffffffffffffffffffffffffffff1673ffffffffffffffffffffffffffffffffffffffff166323b872dd3330846040518463ffffffff1660e01b815260040161130093929190611b81565b6020604051808303816000875af115801561131f573d6000803e3d6000fd5b505050506040513d601f19601f820116820180604052508101906113439190611a9f565b50806006546113529190611bb8565b60068190555080600860003373ffffffffffffffffffffffffffffffffffffffff1673ffffffffffffffffffffffffffffffffffffffff168152602001908152602001600020546113a39190611bb8565b600860003373ffffffffffffffffffffffffffffffffffffffff1673ffffffffffffffffffffffffffffffffffffffff16815260200190815260200160002081905550600a60003373ffffffffffffffffffffffffffffffffffffffff1673ffffffffffffffffffffffffffffffffffffffff16815260200190815260200160002060009054906101000a900460ff1661149b57600e339080600181540180825580915050600190039060005260206000200160009091909190916101000a81548173ffffffffffffffffffffffffffffffffffffffff021916908373ffffffffffffffffffffffffffffffffffffffff1602179055505b6001600a60003373ffffffffffffffffffffffffffffffffffffffff1673ffffffffffffffffffffffffffffffffffffffff16815260200190815260200160002060006101000a81548160ff0219169083151502179055506001600c60003373ffffffffffffffffffffffffffffffffffffffff1673ffffffffffffffffffffffffffffffffffffffff16815260200190815260200160002060006101000a81548160ff02191690831515021790555050565b600d818154811061155e57600080fd5b906000526020600020016000915054906101000a900473ffffffffffffffffffffffffffffffffffffffff1681565b600081519050919050565b600082825260208201905092915050565b60005b838110156115c75780820151818401526020810190506115ac565b838111156115d6576000848401525b50505050565b6000601f19601f8301169050919050565b60006115f88261158d565b6116028185611598565b93506116128185602086016115a9565b61161b816115dc565b840191505092915050565b6000602082019050818103600083015261164081846115ed565b905092915050565b6000819050919050565b61165b81611648565b82525050565b60006020820190506116766000830184611652565b92915050565b600080fd5b600073ffffffffffffffffffffffffffffffffffffffff82169050919050565b60006116ac82611681565b9050919050565b6116bc816116a1565b81146116c757600080fd5b50565b6000813590506116d9816116b3565b92915050565b6000602082840312156116f5576116f461167c565b5b6000611703848285016116ca565b91505092915050565b60008115159050919050565b6117218161170c565b82525050565b600060208201905061173c6000830184611718565b92915050565b61174b81611648565b811461175657600080fd5b50565b60008135905061176881611742565b92915050565b6000602082840312156117845761178361167c565b5b600061179284828501611759565b91505092915050565b6117a4816116a1565b82525050565b60006020820190506117bf600083018461179b565b92915050565b6000819050919050565b60006117ea6117e56117e084611681565b6117c5565b611681565b9050919050565b60006117fc826117cf565b9050919050565b600061180e826117f1565b9050919050565b61181e81611803565b82525050565b60006020820190506118396000830184611815565b92915050565b7f4e487b7100000000000000000000000000000000000000000000000000000000600052602260045260246000fd5b6000600282049050600182168061188657607f821691505b6020821081141561189a5761189961183f565b5b50919050565b7f4f6e6c7920636f6e74726163742063726561746f722063616e2072656469737460008201527f7269627574650000000000000000000000000000000000000000000000000000602082015250565b60006118fc602683611598565b9150611907826118a0565b604082019050919050565b6000602082019050818103600083015261192b816118ef565b9050919050565b7f4e487b7100000000000000000000000000000000000000000000000000000000600052603260045260246000fd5b7f4e487b7100000000000000000000000000000000000000000000000000000000600052601160045260246000fd5b600061199b82611648565b91506119a683611648565b9250817fffffffffffffffffffffffffffffffffffffffffffffffffffffffffffffffff04831182151516156119df576119de611961565b5b828202905092915050565b7f4e487b7100000000000000000000000000000000000000000000000000000000600052601260045260246000fd5b6000611a2482611648565b9150611a2f83611648565b925082611a3f57611a3e6119ea565b5b828204905092915050565b6000604082019050611a5f600083018561179b565b611a6c6020830184611652565b9392505050565b611a7c8161170c565b8114611a8757600080fd5b50565b600081519050611a9981611a73565b92915050565b600060208284031215611ab557611ab461167c565b5b6000611ac384828501611a8a565b91505092915050565b6000611ad782611648565b91507fffffffffffffffffffffffffffffffffffffffffffffffffffffffffffffffff821415611b0a57611b09611961565b5b600182019050919050565b7f616d6f756e742063616e6e6f7420626520300000000000000000000000000000600082015250565b6000611b4b601283611598565b9150611b5682611b15565b602082019050919050565b60006020820190508181036000830152611b7a81611b3e565b9050919050565b6000606082019050611b96600083018661179b565b611ba3602083018561179b565b611bb06040830184611652565b949350505050565b6000611bc382611648565b9150611bce83611648565b9250827fffffffffffffffffffffffffffffffffffffffffffffffffffffffffffffffff03821115611c0357611c02611961565b5b828201905092915050565b7f4f6e6c7920636f6e74726163742063726561746f722063616e206368616e676560008201527f2041505900000000000000000000000000000000000000000000000000000000602082015250565b6000611c6a602483611598565b9150611c7582611c0e565b604082019050919050565b60006020820190508181036000830152611c9981611c5d565b9050919050565b7f4150592076616c75652068617320746f206265206d6f7265207468616e20302c60008201527f207472792031303020666f722028302e31303025206461696c792920696e737460208201527f6561640000000000000000000000000000000000000000000000000000000000604082015250565b6000611d22604383611598565b9150611d2d82611ca0565b606082019050919050565b60006020820190508181036000830152611d5181611d15565b9050919050565b7f616d6f756e742068617320746f206265206d6f7265207468616e203000000000600082015250565b6000611d8e601c83611598565b9150611d9982611d58565b602082019050919050565b60006020820190508181036000830152611dbd81611d81565b9050919050565b6000611dcf82611648565b9150611dda83611648565b925082821015611ded57611dec611961565b5b82820390509291505056fea2646970667358221220924786aca25e7d4314b707042b5b5648aa50c1e91a00b6122043ff960cc81e6964736f6c634300080a0033",
  "immutableReferences": {},
  "source": "// SPDX-License-Identifier: MIT\r\npragma solidity ^0.8.10;\r\n\r\nimport \"./MotherToken.sol\";\r\n\r\ncontract TokenStaking {\r\n    string public name = \"Yield Farming / Token dApp\";\r\n    MotherToken public MTHRToken;\r\n\r\n    //declaring owner state variable\r\n    address public owner;\r\n\r\n    //declaring default APY (default 0.1% daily or 36.5% APY yearly)\r\n    uint256 public defaultAPY = 100;\r\n\r\n    //declaring APY for custom staking ( default 0.137% daily or 50% APY yearly)\r\n    uint256 public customAPY = 137;\r\n\r\n    //declaring total staked\r\n    uint256 public totalStaked;\r\n    uint256 public customTotalStaked;\r\n\r\n    //users staking balance\r\n    mapping(address => uint256) public stakingBalance;\r\n    mapping(address => uint256) public customStakingBalance;\r\n\r\n    //mapping list of users who ever staked\r\n    mapping(address => bool) public hasStaked;\r\n    mapping(address => bool) public customHasStaked;\r\n\r\n    //mapping list of users who are staking at the moment\r\n    mapping(address => bool) public isStakingAtm;\r\n    mapping(address => bool) public customIsStakingAtm;\r\n\r\n    //array of all stakers\r\n    address[] public stakers;\r\n    address[] public customStakers;\r\n\r\n    constructor(MotherToken _MTHRToken) payable {\r\n        MTHRToken = _MTHRToken;\r\n\r\n        //assigning owner on deployment\r\n        owner = msg.sender;\r\n    }\r\n\r\n    //stake tokens function\r\n\r\n    function stakeTokens(uint256 _amount) public {\r\n        //must be more than 0\r\n        require(_amount > 0, \"amount cannot be 0\");\r\n\r\n        //User adding test tokens\r\n        MTHRToken.transferFrom(msg.sender, address(this), _amount);\r\n        totalStaked = totalStaked + _amount;\r\n\r\n        //updating staking balance for user by mapping\r\n        stakingBalance[msg.sender] = stakingBalance[msg.sender] + _amount;\r\n\r\n        //checking if user staked before or not, if NOT staked adding to array of stakers\r\n        if (!hasStaked[msg.sender]) {\r\n            stakers.push(msg.sender);\r\n        }\r\n\r\n        //updating staking status\r\n        hasStaked[msg.sender] = true;\r\n        isStakingAtm[msg.sender] = true;\r\n    }\r\n\r\n    //unstake tokens function\r\n\r\n    function unstakeTokens() public {\r\n        //get staking balance for user\r\n\r\n        uint256 balance = stakingBalance[msg.sender];\r\n\r\n        //amount should be more than 0\r\n        require(balance > 0, \"amount has to be more than 0\");\r\n\r\n        //transfer staked tokens back to user\r\n        MTHRToken.transfer(msg.sender, balance);\r\n        totalStaked = totalStaked - balance;\r\n\r\n        //reseting users staking balance\r\n        stakingBalance[msg.sender] = 0;\r\n\r\n        //updating staking status\r\n        isStakingAtm[msg.sender] = false;\r\n    }\r\n\r\n    // different APY Pool\r\n    function customStaking(uint256 _amount) public {\r\n        require(_amount > 0, \"amount cannot be 0\");\r\n        MTHRToken.transferFrom(msg.sender, address(this), _amount);\r\n        customTotalStaked = customTotalStaked + _amount;\r\n        customStakingBalance[msg.sender] =\r\n            customStakingBalance[msg.sender] +\r\n            _amount;\r\n\r\n        if (!customHasStaked[msg.sender]) {\r\n            customStakers.push(msg.sender);\r\n        }\r\n        customHasStaked[msg.sender] = true;\r\n        customIsStakingAtm[msg.sender] = true;\r\n    }\r\n\r\n    function customUnstake() public {\r\n        uint256 balance = customStakingBalance[msg.sender];\r\n        require(balance > 0, \"amount has to be more than 0\");\r\n        MTHRToken.transfer(msg.sender, balance);\r\n        customTotalStaked = customTotalStaked - balance;\r\n        customStakingBalance[msg.sender] = 0;\r\n        customIsStakingAtm[msg.sender] = false;\r\n    }\r\n\r\n    //airdropp tokens\r\n    function redistributeRewards() public {\r\n        //only owner can issue airdrop\r\n        require(msg.sender == owner, \"Only contract creator can redistribute\");\r\n\r\n        //doing drop for all addresses\r\n        for (uint256 i = 0; i < stakers.length; i++) {\r\n            address recipient = stakers[i];\r\n\r\n            //calculating daily apy for user\r\n            uint256 balance = stakingBalance[recipient] * defaultAPY;\r\n            balance = balance / 100000;\r\n\r\n            if (balance > 0) {\r\n                MTHRToken.transfer(recipient, balance);\r\n            }\r\n        }\r\n    }\r\n\r\n    //customAPY airdrop\r\n    function customRewards() public {\r\n        require(msg.sender == owner, \"Only contract creator can redistribute\");\r\n        for (uint256 i = 0; i < customStakers.length; i++) {\r\n            address recipient = customStakers[i];\r\n            uint256 balance = customStakingBalance[recipient] * customAPY;\r\n            balance = balance / 100000;\r\n\r\n            if (balance > 0) {\r\n                MTHRToken.transfer(recipient, balance);\r\n            }\r\n        }\r\n    }\r\n\r\n    //change APY value for custom staking\r\n    function changeAPY(uint256 _value) public {\r\n        //only owner can issue airdrop\r\n        require(msg.sender == owner, \"Only contract creator can change APY\");\r\n        require(\r\n            _value > 0,\r\n            \"APY value has to be more than 0, try 100 for (0.100% daily) instead\"\r\n        );\r\n        customAPY = _value;\r\n    }\r\n\r\n    //cliam test 1000 MTHR (for testing purpose only !!)\r\n    function claimMTHR() public {\r\n        address recipient = msg.sender;\r\n        uint256 MTHR = 1000000000000000000000;\r\n        uint256 balance = MTHR;\r\n        MTHRToken.transfer(recipient, balance);\r\n    }\r\n}\r\n",
  "sourcePath": "D:\\Documents\\Blockchain\\Token-Staking-dApp\\src\\contracts\\TokenStaking.sol",
  "compiler": {
    "name": "solc",
    "version": "0.8.10+commit.fc410830.Emscripten.clang"
  },
  "schemaVersion": "3.4.7",
  "updatedAt": "2023-03-05T09:27:49.547Z",
  "networkType": "ethereum",
  "devdoc": {
    "kind": "dev",
    "methods": {},
    "version": 1
  },
  "userdoc": {
    "kind": "user",
    "methods": {},
    "version": 1
  }
}